:10000000D5C200000C946D290C9442290C94172938
:100010000C94EC280C94C1280C9496280C946B2812
:100020000C9440280C9498290C9498290C949829A5
:10003000EEC200000C949518EAC20000E8C200006D
:10004000E6C200000C94F12CE2C20000E0C2000005
:10005000DEC20000DCC20000DAC200000C94F62709
:10006000D6C200000C94FD2F0C94D42FD0C20000F7
:10007000CEC20000CCC20000CAC20000C8C200004C
:100080000C94C32CC4C20000C2C20000C0C2000055
:10009000BEC20000BCC20000BAC200000C942C2AF0
:1000A000B6C20000B4C200000C94952CB0C200008F
:1000B000AEC20000ACC20000AAC200000C94672CC3
:1000C000A6C20000A4C20000A2C200000C94AB2F84
:1000D0000C94822F9CC200000C94592F0C94302F4A
:1000E00096C200008C2E8F2E7E2E822E882EC62E3B
:1000F000932E972E9D2EA12EA52EAB2EAF2EB32E76
:10010000C62EB92EBD2EC12E023107310C3116314B
:10011000203199312A3132313A3144314E3158311E
:100120006731713199317B3185318F3198339F330C
:100130007C3383338A339133A633AD33084AD73BBC
:100140003BCE016E84BCBFFDC12F3D6C74319ABDA6
:1001500056833DDA3D00C77F11BED9E4BB4C3E91CA
:100160006BAAAABE000000803F08000000BE9224D7
:1001700049123EABAAAA2ABECDCCCC4C3E00000010
:1001800080BEABAAAAAA3E00000000BF000000800B
:100190003F0000000000084178D3BB4387D1133DE6
:1001A000190E3CC3BD4282AD2B3E68EC8276BED9AF
:1001B0008FE1A93E4C80EFFFBE01C4FF7F3F0000EE
:1001C00000000007634236B79BD8A71A3968561853
:1001D000AEBAAB558C1D3CB7CC5763BD6DEDFD750C
:1001E0003EF6177231BF000000803F002000000083
:1001F00000000030007C82827C00310042FE020060
:10020000003200468A92620033004492926C0034BD
:10021000001C64FE04003500F292928C0036007CD3
:1002200092924C003700C08E90E00038006C9292A1
:100230006C0039006492927C006100042A2A1E003E
:100240006200FE12120C0063000C12121200640015
:100250000C1212FE0065001C2A2A18006600103ECF
:1002600050500067000815151E006800FE101E00A3
:10027000006900002E0000006A0002012E00006BE1
:1002800000FE081412006C0000FE0200006D001E4B
:10029000100E100E6E001E10100E006F000C1212C9
:1002A0000C0070001F12120C0071000C12121F00C3
:1002B00072001E081010007300122925120074002D
:1002C000103E12000075001C02021E007618040287
:1002D0000418007718061C0618007800120C0C127F
:1002E0000079001805051E007A0012161A12004146
:1002F000007E88887E004200FE92926C0043007C63
:10030000828244004400FE82827C004500FE92927C
:1003100082004600FE9090800047007C82925C0044
:100320004800FE1010FE00490082FE8200004A00D4
:100330000C0202FC004B00FE1028C6004C00FE021E
:100340000202004D00FE403040FE4E00FE403008EC
:10035000FE4F007C8282827C5000FE9090600051B3
:10036000007C828A847A5200FE9894620053006472
:1003700092924C00540080FE8080005500FC0202E6
:10038000FC005600F00C020CF05700FE043804FE8E
:100390005800C63838C60059C0201E20C0005A0078
:1003A000869AB2C2002C00010E0C00002E0000063E
:1003B000060000257254781E2A4E2100007A0000A3
:1003C000003F00204A3000002D0010101010002BBC
:1003D00008083E0808002F00020C3040002A2214B2
:1003E000081422003A0000140000002200C000C0DF
:1003F00000002328FE28FE28002800007C82000040
:10040000290000827C00003B0002240000007E00E6
:1004100040804080003B0002240000003D0028286E
:100420002828007C0000FE0000003E0082442810C6
:10043000003C001028448200400000000000007CC6
:10044000447C007C005C547454547C70107C745464
:100450005C7C545C40407C7C547C74547C00040084
:10046000202020000000000020002300260029009A
:100470002C002F00320000010000030106010901D9
:1004800005050505070508080808020202020A0A10
:10049000080804040404010101010101010103032E
:1004A000030303030303040707070C0C0C0C0C0CD9
:1004B0000C0C0202020206060606060606060B0BD6
:1004C0000B0B0B0B0B0B0102102020080810204017
:1004D0001020408002010201080402010102040808
:1004E0001020408080402010080402018004020196
:1004F00080402010080402010804020101020408DF
:1005000010204080010204081020408000002100DB
:10051000240027002A002D003000330001010000D4
:10052000040107010A0100000A0B02090C0D0E0864
:1005300007030401000000000000000000000000AC
:1005400000000000000000000000000000000000AB
:100550000000121110000000000000000000000068
:100560000000000000000000000000003F065B4F9C
:10057000666D7D077F6F777C395E7971BF86DBCFD3
:10058000E6EDFD87FFEFF7FCB9DEF9F10040000072
:100590002200250028002B002E003100340002012B
:1005A0000000050108010B010961F36011241FBE61
:1005B000CFEFD1E2DEBFCDBF00E00CBF14E0A0E082
:1005C000B2E0E0E2F7ED00E00BBF02C007900D9251
:1005D000AE30B107D9F72EE0AEE0B4E001C01D9215
:1005E000A635B207E1F712E0C5EDD2E000E006C0A3
:1005F00021970109802FFE010E940F69C43DD10798
:1006000080E00807A9F70E94F54B0C947F6BF8CCAB
:100610002F923F924F925F926F927F928F929F9212
:10062000AF92BF92CF92DF92EF92FF920F931F9300
:10063000CF93DF93CDB7DEB7C054D1090FB6F8948E
:10064000DEBF0FBECDBF30917404843311F40C941F
:10065000C40C08F04AC0843111F40C94000CD0F49E
:10066000893009F45EC360F4853009F4DEC0883057
:1006700009F4F9C1833011F00C941D110C94EF0BA7
:100680008B3009F409C308F482C08C3009F4AFC17F
:100690000C941D11823211F40C94320CD0F480327F
:1006A00011F40C94210C10F00C946B0C8E3111F0A1
:1006B0000C941D1161E0832F21963FAF21970E947A
:1006C0009F306091750421963FAD2197832F0C9444
:1006D0001E0C893209F416C4823311F40C94B10C47
:1006E000883211F00C941D11D0C0883609F428C24C
:1006F000F0F4843609F409C260F48D3309F462C061
:100700008E3311F40C94F80F8C3311F00C941D11EE
:1007100057C2863611F40C94360D10F00C94C40CAC
:1007200040917704609176048091750405C2813808
:1007300011F40C94240FF0F4893711F40C94141173
:10074000803811F40C94600E853711F00C941D1153
:1007500083E090E09093A6048093A50444E650E0E3
:1007600060E070E08CED95E00E94E9460E949349BC
:100770000C941D11833811F40C94240F10F40C9474
:10078000600E843811F40C94480E0C941D1187E00F
:1007900090E021963FAF21970E94D14A8C0121968B
:1007A0003FAD2197632F82ED9BE00E94873984EF54
:1007B00091E09093D90B8093D80BC8010E94A83484
:1007C0000C941D1131110C941D111091750488E0C9
:1007D00090E00E94D14A113091F422E02093320936
:1007E0009C018F3F910519F014F02FEF30E021307C
:1007F0006FEF360714F00C9474100C9472101230D2
:1008000011F00C941D1122E02093B2089C018F3F3F
:10081000910519F014F02FEF30E021307FEF37070A
:1008200014F00C948B100C94891086E090E00E94D8
:10083000D14A22E0209332098F3F910519F014F03C
:100840008FEF90E08130EFEF9E0714F481E09FEF8F
:10085000909339098093380988E090E00E94D14A4A
:1008600022E02093B2088F3F910519F014F08FEF2A
:1008700090E08130FFEF9F0714F481E09FEF9093A9
:10088000B9088093B8080C941D1187E090E0219678
:100890003FAF21970E94D14A8C0189E090E00E94ED
:1008A0009F4A6B017C0121963FAD2197313029F59C
:1008B00061E0CE0101960E94DF39BE016F5F7F4F7C
:1008C0008CEE99E00E94184AB701A6018CEE99E0DF
:1008D0000E947139B801110F880B990B0E94ED63CA
:1008E0006B017C01AB01BC018CEE99E00E941739D1
:1008F000B701A6018CEE99E026C0323041F562E0E6
:10090000CE0101960E94DF39BE016F5F7F4F81E209
:100910009AE00E94184AB701A60181E29AE00E947B
:100920007139B801110F880B990B0E94ED636B01AF
:100930007C01AB01BC0181E29AE00E941739B7014A
:10094000A60181E29AE00E94A0380C941D11333078
:1009500029F563E0CE0101960E94DF39BE016F5F89
:100960007F4F86E59AE00E94184AB701A60186E506
:100970009AE00E947139B801110F880B990B0E94FF
:10098000ED636B017C01AB01BC0186E59AE00E943E
:100990001739B701A60186E59AE0D5CF343011F0BA
:1009A0000C941D1164E0CE0101960E94DF39BE0156
:1009B0006F5F7F4F8BE89AE00E94184AB701A6014B
:1009C0008BE89AE00E947139B801110F880B990BDE
:1009D0000E94ED636B017C01AB01BC018BE89AE0E6
:1009E0000E941739B701A6018BE89AE0ACCF20919D
:1009F000750488E090E021962FAF21970E94D14A9C
:100A00008C018AE090E00E94BA4A6B017C01219639
:100A10002FAD2197213069F4B801110F880B990B84
:100A20000E94ED638B019C01B701A60188E998E063
:100A300010C0223011F00C941D11B801110F880B59
:100A4000990B0E94ED638B019C01B701A60182EA1C
:100A500098E00E94304568E270E080E090E00E94FB
:100A6000E6310C941D11609175041091760400918B
:100A70007704F0907804E0907904332321F0832FF9
:100A80000E94703402C00E944733112361F18FEF3E
:100A9000810F482F50E02091B40B3091B50B4217D5
:100AA000530768F5982F990F890F90E0E091B60BE6
:100AB000F091B70BE80FF91FF694F694F082E091ED
:100AC000B60BF091B70BE80FF91F06950695018359
:100AD0002091B60B3091B70BF901E80FF91FE6949E
:100AE000E694E2820CC02E2D269526954F2D469534
:100AF0004695602F6695669580E00E94043B1092B3
:100B000021040E94B83A0C941D1160917504E09084
:100B100076041091770400917804F09079043323DF
:100B200021F0832F0E94703402C00E944733E0926C
:100B300021044F2D602F812F0E944A240C941D11F7
:100B40002091750430E0322F222780917604282BE3
:100B5000F90100E010E069E1C62ED12C7CE0A72E5F
:100B6000B12CEE24E394F12CC601801B910BB5014E
:100B70000E94FC68A70102C0440F551F8A95E2F746
:100B800042235323C701002E02C0880F991F0A94E5
:100B9000E2F7452B19F0E82BF92B04C080959095CE
:100BA000E823F9230F5F1F4F0C301105E9F6F0938E
:100BB0002004E0931F0486E0809321040C941D110F
:100BC00010917504313111F00C941D1117FF04C000
:100BD00081E080931C0402C010921C041F77809156
:100BE0006B04811711F40C941D11113019F410933A
:100BF0000C0208C08EEF810F823020F00E94A04BC3
:100C00001530C8F580916B04811105C0123019F4BC
:100C100091E090936C0490916A04911102C011309C
:100C200011F0111102C010926C041092560410922F
:100C300057041092580410925904109236041092DE
:100C40003704109238041092390480936A04109388
:100C50006B04133031F482E080936A0481E0809366
:100C60006B0483E890E00E94154760916B04861343
:100C70000DC00C941D1110926B0483E890E00E944B
:100C80001547882311F40C941D1160E083E890E06F
:100C90000E9413470C941D1180917504632F70E01E
:100CA000660F771FFB01EB5EFC4F813011F4608112
:100CB00001C061811091760470E0ECE8F5E080E01D
:100CC00090E0219131912617370781F0232B41F4D1
:100CD000FC01EE0FFF1FE457FA4F7183608306C0DB
:100CE00001968C30910569F780E090E0FC01EE0FF1
:100CF000FF1F8E0F9F1FFC01E652F44F80819181F0
:100D0000A28189839A83AB83153B10F00C941D114B
:100D1000898190E0FC01EE0FFF1F8E0F9F1FFC01E9
:100D200010C63093A80BE32FF0E0EE0FFF1FEB5E31
:100D3000FC4F81818093A70B90819093A60B8093A9
:100D4000AE0B9093AF0B61E00E949F3061E0809109
:100D5000AF0B0E949F3080E48093AA0B80EC8093BD
:100D6000AB0B8AE88093AC0B80E289838A838B8308
:100D70008C83CE0101960E94333487E090E00E947C
:100D8000BA4A6B017C0119821A821B821C8220E004
:100D900030E0A9010E94E76387FF09C0F7FAF094E9
:100DA000F7F8F09481E2898321E02AAF01C01AAEFE
:100DB000BDEF2B2E33243A9403E010E01BAE17FD59
:100DC00048C0B8016F5F7F4F072E000C880B990B4E
:100DD0000E94ED639B01AC0160E070E080E291E471
:100DE0000E949B674B015C019B01AC01C701B601EE
:100DF0000E943A660E94D3662B013C01B801012E85
:100E0000000C880B990B0E94ED639B01AC0160E024
:100E100070E080E291E40E949B676CAF7DAF8EAF83
:100E20009FAFA5019401C301B2010E944C649B01D4
:100E3000AC01C701B6010E9473652CAD3DAD4EAD4E
:100E40005FAD0E943A660E94D3660E94A266CB0103
:100E500023C020E030E040E251E4C701B6010E9427
:100E60004C64E2E02E16310484F020E030E040E2F1
:100E700051E40E944C64F2E02F16310431F020E07E
:100E800030E040E251E40E944C640E94A266CB0133
:100E90006AE070E00E94FC681816190634F000231E
:100EA00021F02BAD2223D9F00DC001110BC0E1E0E0
:100EB000F0E0EC0FFD1F6AADE60FF11D60E1680F79
:100EC000608308C0E1E0F0E0EC0FFD1F7AADE70FB2
:100ED000F11D80838AAD8F5F8AAF91E09BAFEAAD51
:100EE000E43050F401501109FFEF2F1A3F0A0C3F74
:100EF0002FEF120709F063CFCE0101960E94333421
:100F00000C941D118091730B8317B1F1E32FF0E066
:100F1000EE0FFF1FEB5EFC4F80818093750B91817C
:100F20009093760B3093730B61E00E949F3061E0E9
:100F30008091760B0E949F3061E08091750B0E943A
:100F4000703061E08091760B0E94703080E40E94E6
:100F500005348CE80E940534E9E7FBE080E18E0F60
:100F600011928E13FDCF81E08093770B1092780B56
:100F700089E79BE00E94B43380917504813009F0C9
:100F80006AC1009176048091770420917804022E42
:100F9000000C330BA9E7B4E0E8E6F5E0AF014856F2
:100FA0005540421753071CF49D919193F7CFF901D7
:100FB000E859FA4F1082002E000C110B91E090932B
:100FC000780BE12CF12CF701E859FA4F9081F701E9
:100FD000EF58F44F992321F063E1E616F10481F410
:100FE000F0928D0BE0928C0B158E4AEFB701460301
:100FF0009001479F300D11240217130764F005C0BC
:10100000958F7FEFE71AF70ADECF0131110524F043
:1010100000E110E001C0890110938A0B0093890B55
:1010200080310CF08FE0482F87FD4FEF40938B0B02
:10103000101611060CF069C020E030E0822F201756
:10104000310759F02F5F3F4F2131310509F4CFC0EF
:10105000F901EF58F44F1782F1CF203109F4C7C0DE
:1010600090E057E070E2B72E292F30E02E153F05B3
:101070000CF042C0A12CB9016257744F6B015A9D0C
:10108000D0011124BD0164517E4FFB011491103435
:1010900029F1FB019490F6010081002E000C110B48
:1010A000E92DF0E00E171F07B9F400E010E01196EB
:1010B000FD01E00FF11FE451FE4FD490E82FF0E066
:1010C000EF58F44FD0868F5F803141F00F5F1F4F94
:1010D0000630110569F702C0A394D1CFFB016491DA
:1010E000603429F4F901EF58F44FB58E91509F5FA9
:1010F000803109F0B9CF7BC0E82FF0E0EF58F44F12
:1011000010868F5F8031C1F772C00217130741F458
:10111000E9E7FBE080E18E0F11928E13FDCF67C0EF
:1011200022273327201B310BC90166E070E00E94A3
:10113000FC68582F30938A0B2093890B9B0190E019
:1011400087E060E2962E2E153F050CF047C0812CFB
:10115000B9016257744F6B01889DD0011124BD0104
:1011600064517E4FFB01B490F0E4BF1619F1FB010E
:101170007490F601A0800A2C000CBB08E72DF0E06B
:10118000AE16BF06A1F4FD01E50FF11D57FDFA955E
:10119000E351FE4FD490E92FF0E0EF58F44FD086A2
:1011A0009F5F903130F45F5F563069F702C08394DF
:1011B000D3CF50E0FB016491603431F4F901EF5872
:1011C000F44F958E215031092F5F3F4F903108F435
:1011D000BACF10938A0B0093890B09C0E92FF0E076
:1011E000EF58F44F10869F5F9031C1F7F2CF842FF4
:1011F000440F990B27E030E0281B390BE9E7FBE0AF
:1012000037FD14C090E19E0F8081022E01C0880F2F
:101210000A94EAF781939E13F7CF8091770B81119F
:10122000CFC2E9E7FBE090E19E0F0FC0079740E1D6
:101230004E0F208130E0082E02C0359527950A9484
:10124000E2F721934E13F5CFE8CF8081809581930B
:101250009E13FBCFB5C2823009F090C02091760476
:1012600000917704A8E7B4E0ECE7F5E08D91819375
:1012700065E0EC38F607D1F720310CF0DEC7083016
:101280000CF0DBC78091770B402F002E000C550B24
:10129000022E000C330B6CE775E010E1160F88236B
:1012A000B1F188E090E0841B950B6FEFF62E01C042
:1012B000FF0C8A95EAF7D901A758B44FECE7F5E09F
:1012C0002C57354066277727641B750BC9018E0F95
:1012D0009F1F97FD17C08C91EF2CE822101654F435
:1012E0009081892F90E0042E02C0959587950A94ED
:1012F000E2F706C08081062E01C0880F0A94EAF743
:101300008E298C93119631961E13E0CF59C288E036
:1013100090E0841B950B6FEFF62E01C0FF0C8A95B1
:10132000EAF7D901A758B44FECE7F5E02C57354060
:1013300066277727641B750BC9018E0F9F1F97FDCA
:1013400018C08C91EF2CE8229081892F90E0809535
:10135000909510163CF4042E02C0959587950A943A
:10136000E2F705C0062E01C0880F0A94EAF78E291D
:101370008C93119631961E13DFCF22C2833009F071
:101380008FC04091760480917704A09178045AE050
:10139000652F0E94DC68282F30E0F901EE0FFF1F57
:1013A0002E0F3F1FF901E15CFB4FE491E093790BB5
:1013B000F901E05CFB4FE491E0937A0BF901EF5BFC
:1013C000FB4F249120937B0B10927C0B292F30E054
:1013D000F901EE0FFF1F2E0F3F1FF901E15CFB4FDC
:1013E000E491E0937D0BF901E05CFB4FE491E09325
:1013F0007E0BF901EF5BFB4F249120937F0B8A2F2B
:101400000E94DC68282F30E0F901EE0FFF1F2E0F3D
:101410003F1FF901E15CFB4FE491E093820BF9017E
:10142000E05CFB4FE491E093830BF901EF5BFB4F32
:1014300024912093840B1092850B892F90E0FC015E
:10144000EE0FFF1F8E0F9F1FFC01E15CFB4FE4912D
:10145000E093860BFC01E05CFB4FE491E093870B8B
:10146000FC01EF5BFB4F84918093880B442331F0A8
:1014700088E28093800B8093810B04C01092800BD4
:101480001092810B8091770B81119AC1E9E7FBE003
:1014900090E19E0F8081809581939E13FBCF90C138
:1014A000843009F0CAC688E090E00E94BA4A6B0115
:1014B0007C014B015C01B7FAB094B7F8B09420E01E
:1014C00030E0A9010E94E76387FF05C08AAE9BAEAA
:1014D0003A2C2B2C04C0CAAEDBAE3E2C2F2C03E0E2
:1014E0006AE0862E912C20E03EE34CE156E4C701F1
:1014F000B6010E944B6787FD03C089E08EAB0DC02B
:1015000020E030EE49E754ECC701B6010E94E763E2
:1015100018163CF08BE08EAB89E08FAB88AF89AFBB
:10152000DFC020E030E0A901C701B6010E94E763F7
:10153000A82EAA1CAA24AA1C10E060E070E080E09B
:101540009FE3101741F020E030E040E251E40E94B8
:101550003A661F5FF6CF9B01AC016AAD7BAD832D70
:10156000922D0E9474652B013C010E94A766FB012D
:101570009B0110E0C901B4010E94E868A1E0B0E05D
:10158000AC0FBD1FA10FB11D8AE0689F2019112467
:101590002C931F5F9B01672B69F7812F8A0DB82E53
:1015A000B00E94E09B1518F404E0081B9CCF8CE06F
:1015B0008EAB8FAB88AF89AFBF0180E090E00E9417
:1015C000EB639B01AC01C301B2010E9473652B0167
:1015D0003C0184E0F82EFB18AA2041F0FE01EF0D3B
:1015E000F11D8BE086AB85E0F82EFB18F10E8F2DF8
:1015F000811B112369F0E6E3F0E0EC0FFD1FE80F1B
:10160000F11DDE01A10FB11D8C9180831150EFCF30
:10161000002309F465C0E3E0FE120EC020E030E0D4
:1016200040E251E4C301B2010E944C640E94A266F0
:10163000672B21F58CE073CFF2E0FF120EC020E0A3
:1016400030E048EC52E4C301B2010E944C640E94B5
:10165000A266672B99F48CE061CF21E0F2120EC0F4
:1016600020E030E04AE754E4C301B2010E944C6438
:101670000E94A266672B11F48CE04FCF11E01F0D82
:10168000E6E3F0E0EC0FFD1FEF0DF11D8AE0808333
:10169000015030F120E030E040E251E4C301B201FA
:1016A0000E944C644B015C010E94A266FF24F394EB
:1016B000F10EE6E3F0E0EC0FFD1FE10FF11D60839A
:1016C000072E000C880B990B0E94ED639B01AC0167
:1016D000C501B4010E9473652B013C011F2DD8CFB9
:1016E0008EA990E0FC01EE0FFF1F8E0F9F1FFC01E3
:1016F000E15CFB4FE491E093790BFC01E05CFB4F74
:10170000E491E0937A0BFC01EF5BFB4FE491E093F3
:101710007B0B10927C0B8FA990E0FC01EE0FFF1F5A
:101720008E0F9F1FFC01E15CFB4FE491E0937D0B6A
:10173000FC01E05CFB4FE491E0937E0BFC01EF5B6E
:10174000FB4FE491E0937F0B1092800B88AD90E00B
:10175000FC01EE0FFF1F8E0F9F1FFC01E15CFB4F92
:10176000E491E093810BFC01E05CFB4FE491E0939A
:10177000820BFC01EF5BFB4FE491E093830B109233
:10178000840B89AD90E0FC01EE0FFF1F8E0F9F1FB1
:10179000FC01E15CFB4FE491E093850BFC01E05C14
:1017A000FB4FE491E093860BFC01EF5BFB4FE49170
:1017B000E093870B1092880B8091770B882329F098
:1017C00089E79BE00E94B43338C5E9E7FBE090E18C
:1017D0009E0F8081809581939E13FBCFF1CF8091E6
:1017E000A40B831729F0632F82EA9BE00E948739BC
:1017F00011E080917504811101C010E061E00EC01C
:101800008091A40B831729F0632F82EA9BE00E944A
:1018100087391091750461E0123040F48091A20B79
:101820000E949F30612F8091A20B08C0123009F4F2
:1018300060E082EA9BE00E94AE39FFC40E947030F3
:10184000FCC461E0832F21963FAF21970E949F3017
:101850006091750470E021963FAD2197832F0E941F
:10186000DB30EBC461E0832F0E949F3087E090E083
:101870000E94D14A7C0189E090E00E94D14A8C010B
:10188000181619060CF0D9C4C70163E070E00E9475
:10189000FC689B0140E050E060E472E48FE090E07F
:1018A0000E9416653093AD002093AC00220F331FC9
:1018B0003093A7002093A6001093EB090093EA0948
:1018C0000E94EA276093E6097093E7098093E8098C
:1018D0009093E909B2C410917504153B08F0ADC4AA
:1018E000632F70E0ECE8F5E020E030E08191919129
:1018F0008617970789F0892B41F4F901EE0FFF1F36
:10190000E457FA4F7183608307C02F5F3F4F2C303D
:10191000310561F720E030E0F901EE0FFF1F2E0FD7
:101920003F1FF901E652F44F208191818281298382
:101930009A838B8330E0F901EE0FFF1F2E0F3F1FBC
:10194000F901EF5FF74F808187FD04C0CE0101965A
:101950000E94E02B612F70E0CE0101960E945D2B6A
:101960006CC40E94EA270E94EB6320E030E04AE763
:1019700054E40E943A666093AC047093AD04809383
:10198000AE049093AF0459C4311157C487E090E07E
:101990000E94D14A8C0189E090E00E94D14ABC01AA
:1019A000990F880B990B0E94ED634B015C016093CA
:1019B00018047093190480931A0490931B049801DF
:1019C00017FF04C022273327201B310B029FC001C1
:1019D000039F900D129F900D112464E670E00E9409
:1019E000FC68072E000C880B990B0E94ED636B01BD
:1019F0007C0120E030E048E452ECC501B4010E94D3
:101A0000E76387FF04C0F7FAF094F7F8F094C09208
:101A10001404D0921504E0921604F09217048091F9
:101A20001D04882351F020E030E0A901C501B40174
:101A30000E94E76318160CF400C48092560490923A
:101A40005704A0925804B0925904809114049091C4
:101A50001504A0911604B091170480933604909356
:101A60003704A0933804B0933904E7C33111E5C3B8
:101A700087E090E00E94D14A8C0189E090E00E94CA
:101A8000D14A9C010B3011051CF00A50110906C007
:101A9000063F6FEF160774F4065F1F4F4AE0409F42
:101AA000C001419F900D112469E070E00E94FC6824
:101AB0008B0102C000E010E02B3031051CF02A50F1
:101AC000310906C0263F7FEF370774F4265F3F4F8A
:101AD0004AE0429FC001439F900D112469E070E0ED
:101AE0000E94FC685B0102C0A12CB12CB501660FFD
:101AF000771F6A0D7B1D072E000C880B990B0E9427
:101B0000ED636B017C01609318047093190480935A
:101B10001A0490931B04B801012E000C880B990B3A
:101B20000E94ED632B013C0120E030E0A901C701D8
:101B3000B6010E94E76387FF04C077FA709477F8D4
:101B4000709440921404509215046092160470929E
:101B5000170480916B04811140C080911D0488237B
:101B600051F020E030E0A901C701B6010E94E7630F
:101B700018160CF484C08090140490901504A09062
:101B80001604B0901704A5019401C701B6010E9484
:101B9000746511E010933209109333096093400982
:101BA00070934109809342099093430910929C09D4
:101BB000A7019601C501B4010E9473651093B20894
:101BC0001093B3086093C0087093C1088093C20853
:101BD0009093C30810921C0952C0813009F04FC085
:101BE000012B29F4AB2819F480930C0248C0809192
:101BF0006A048090140490901504A0901604B0908C
:101C00001704823089F4C0925604D0925704E092AF
:101C10005804F09259048092360490923704A092AE
:101C20003804B09239042BC0A5019401C701B60154
:101C30000E94746511E01093320910933309609388
:101C4000400970934109809342099093430910928F
:101C50009C09A7019601C501B4010E947365109308
:101C6000B2081093B3086093C0087093C1088093C2
:101C7000C2089093C30810921C0910920C02109293
:101C800011041092100410920F0410920E04D5C289
:101C900080916B04813009F0D0C287E090E00E940F
:101CA000D14A9C01220F331F820F931F97FF03C05D
:101CB0009195819591099093090280930802BDC284
:101CC0003111BBC287E090E00E94D14A7C0189E0DB
:101CD00090E00E94D14A8C011092110410921004DD
:101CE00010920F0410920E04009709F4A6C290936C
:101CF0001104809310048091FD0A9091FE0AA09136
:101D0000FF0AB091000BB0588093360E9093370EB7
:101D1000A093380EB093390E1092320E1092330EFB
:101D20001092340E1092350E80916B04811150C0C8
:101D300027EB30E0D7010E94176926E831E040E048
:101D400050E00E941665B90117FF09C0121613066C
:101D50001406150624F466277727621B730BCB0144
:101D60008D599F4F873C910538F477FD03C064E699
:101D700070E002C06CE97FEF072E000C880B990B16
:101D80006093260E7093270E8093280E9093290E51
:101D90000E94ED6321E02093320920933309609380
:101DA000400970934109809342099093430910922E
:101DB0009C092093B2082093B3086093C0087093E5
:101DC000C1088093C2089093C30810921C0919C0DF
:101DD0008230B9F427EB30E0D7010E94176926E87A
:101DE00031E040E050E00E941665CA01B9010E944E
:101DF000ED636093360470933704809338049093B6
:101E000039040E94EA2760932E0E70932F0E809360
:101E1000300E9093310EC801B7010E94FC6877FF25
:101E200003C071956195710928EE33E0629FC0018E
:101E3000639F900D729F900D1124805F984D092E25
:101E4000000CAA0BBB0BCBC03111F7C187E090E0AF
:101E50000E94D14A7C0189E090E00E94D14A8C0125
:101E60001092110410921004B701FF0C880B990B0B
:101E70000E94ED6320E030E040E05FE30E944C64AC
:101E80000E94A2667B016B01CC0CDD1CC60ED71E26
:101E9000560122E1209FC001219F900D11249093B3
:101EA0000F0480930E0480914C0990914D09A091EC
:101EB0004E09B0914F094090CC085090CD086090E9
:101EC000CE087090CF08BC01CD0164197509860950
:101ED000970922E030E040E050E00E941665209330
:101EE000220E3093230E4093240E5093250E17FF9D
:101EF0000AC0B601D7FE03C0719561957109AA2485
:101F0000BB24A61AB70AB5010B2C000C880B990B41
:101F10006093260E7093270E8093280E9093290EBF
:101F200020916B0421112BC00E94ED63DD24D3941A
:101F3000D0923209D09233096093400970934109DD
:101F4000809342099093430910929C096627772752
:101F50006A197B09072E000C880B990B0E94ED6310
:101F6000D092B208D092B3086093C0087093C108B1
:101F70008093C2089093C30810921C090CC02230B1
:101F800051F40E94ED63609356047093570480935C
:101F90005804909359040E94EA2760932E0E709380
:101FA0002F0E8093300E9093310EC801B7010E941E
:101FB000FC6877FF03C071956195710928EE33E0E5
:101FC000629FC001639F900D729F900D1124092E96
:101FD000000CAA0BBB0B80569947AE4FBF4F8093A6
:101FE0002A0E90932B0EA0932C0EB0932D0E25C18C
:101FF00010917504313051F588E090E00E949F4ABD
:102000006B017C018CE090E00E94D14A97FF03C0F5
:10201000919581959109113069F4BC01990F880B54
:10202000990B0E94ED638B019C01B701A60182E32D
:1020300099E0F7C0123009F000C1BC01990F880B7C
:10204000990B0E94ED638B019C01E7C03230A1F532
:1020500088E090E00E94D14A1130A9F4BC01990FA8
:10206000880B990B0E94ED6310933209109333098A
:10207000609340097093410980934209909343090A
:1020800010929C09DAC0123009F0D7C0BC01990F38
:10209000880B990B0E94ED6321E02093B2082093F6
:1020A000B3086093C0087093C1088093C2089093EE
:1020B000C30810921C09C1C0333091F588E090E04C
:1020C0000E94D14A1130A9F422E0209332099C01E8
:1020D0008F3F910519F014F02FEF30E021308FEF92
:1020E000380714F421E03FEF309339092093380981
:1020F000A4C0123009F0A1C01093B2089C018F3F18
:10210000910519F014F02FEF30E021309FEF3907DF
:1021100014F421E03FEF3093B9082093B8088DC044
:102120003430B9F4113049F4109258091092590919
:1021300010925A0910925B0980C0123009F07DC0DC
:102140001092D8081092D9081092DA081092DB0881
:1021500074C0353009F071C088E090E00E949F4A59
:102160006B017C018CE090E00E94D14A113091F427
:10217000BC01990F880B990B0E94ED634B015C0128
:1021800044275527BA014C195D096E097F0995014D
:1021900084013DC01230D1F4BC01990F880B990B1A
:1021A0000E94ED634B015C018B019C01B701A6010C
:1021B00082E399E00E944C6344275527BA014C19E9
:1021C0005D096E097F099501840129C0133089F4E6
:1021D000BC01990F880B990B0E94ED634B015C01C8
:1021E000F094E094D094C094C11CD11CE11CF11C6B
:1021F0000AC0143011F5BC01990F880B990B0E948D
:10220000ED634B015C0195018401B701A60182E3F6
:1022100099E00E944C6395018401B701A60182EB0D
:1022200098E00E944C6309C081E080936C04809127
:102230006B04823011F40E94A04BC05CDF4F0FB6DC
:10224000F894DEBF0FBECDBFDF91CF911F910F91EC
:10225000FF90EF90DF90CF90BF90AF909F908F90C6
:102260007F906F905F904F903F902F9008954F9286
:102270005F926F927F928F929F92AF92BF92CF9216
:10228000DF92EF92FF920F931F93CF93DF93CDB71F
:10229000DEB76D970FB6F894DEBF0FBECDBF1091BD
:1022A0007404883109F4EDC348F5863009F427C475
:1022B00078F4823009F48DC038F4882309F442C4DC
:1022C000813009F45BC009C6853008F08FC12EC18A
:1022D000813109F41EC248F48F3009F405C208F0B8
:1022E000B6C1873009F422C1F8C5863109F43BC56F
:1022F00008F0F2C2853109F439C2EFC5853209F41C
:1023000070C4E0F48B3109F420C138F4893109F448
:10231000D5C38A3109F44DC2E0C58F3109F44EC4EA
:10232000843209F46FC48E3109F0D7C560E0812F83
:102330000E949F30812F0E9448304EC48D3309F493
:1023400025C590F4833309F400C58C3309F459C5CD
:10235000823309F0C2C56091A8047091A9048091EC
:10236000AA049091AB0451C5813709F4ACC48237FB
:1023700009F489C4803709F0B0C57AC48091260475
:1023800090912704009731F0FC012281211771F010
:102390000E94B2698EE090E00E941D697C01612F6D
:1023A0000E94CF39F0922704E09226046091220423
:1023B0007091230480912404909125040E94ED6380
:1023C0006B017C010E949C4B809128040E940B4B66
:1023D000B6C3909175048091C10B811304C08091A4
:1023E000C20B891749F1E12FF0E0EE0FFF1FEB5E02
:1023F000FC4F20812093BF0B81818093C00B1093F1
:10240000C10B9093C20B923009F0822F90E0FC0137
:10241000EA53FB4FE491E093C30BFC01E058FB4F00
:10242000E491F0E0EE0FFF1FEA59FB4F8591949184
:102430009093C50B8093C40B0E94F3448CEC0E94D4
:10244000874484E40E9487440E94EA276B017C0150
:1024500003E210E08091C30BE091C40BF091C50B37
:102460009181282F2095922391839281982B92839A
:10247000D8011197F1F79081892309F4D1C40E9402
:10248000F3448CEC0E9487448EEB0E948744DE016B
:10249000119667E070E003E210E0FFECEF2EF12C04
:1024A00085E0B82EBA0E48E050E031E020E0A09080
:1024B000C30BE091C40BF091C50BF89491819A295C
:1024C0009183D2809A2C9094D920D282CB0101970B
:1024D000F1F7D180992D9D21918392819A29928340
:1024E000C8010197F1F790817894F7013197F1F7DE
:1024F0008A2D892309F0232B330F41505109B9F656
:102500002D93BA12D0CF6A8170E0762F6627898129
:10251000682B072E000C880B990B0E94ED6320E0BE
:1025200030E040E85DE30E944C646FC4612F82EAB2
:102530009BE00E94873960E08091A30B0E949F304E
:1025400082EA9BE00E94973947C38091A40B8117D0
:1025500051F0612F82EA9BE00E94873960E0809110
:10256000A30B0E949F3082EA9BE00E949739BC0136
:10257000990F880B990B0E94ED639B01AC0160E001
:1025800070EC8FE794E40E943A6620E030E040E887
:102590005FE30E9473659B01AC0160E070E48CE135
:1025A00096E40E943A6620E030E44CE156E40E9452
:1025B0003A660E945B6720E030E443E555E40E9400
:1025C0003A662FE03FEC4BE55BE30E9474659B01AC
:1025D000AC0160E070E080E89FE30E943A6623E38C
:1025E00033E948E853E40E9473650FC40091750411
:1025F0008091C20A811729F0612F80EC9AE00E9435
:102600008739013059F480EC9AE00E94A239209178
:10261000A4053091A5058A5E91400CC0023071F48A
:1026200080EC9AE00E9497398A5E91402091A6053D
:102630003091A705BC01620F731F02C060E070E01B
:10264000072E000C880B990B0E94ED63DEC3E0900F
:10265000A304F090A404E114F104C9F0F70181A1EE
:10266000811789F18DE493E091838083E259FF4FD4
:10267000808191810E94B2698BE393E0F70191839D
:102680008083C7010E94162AC7010E94B2698BE7A6
:1026900090E00E941D697C01612F0E941A3A81E836
:1026A00092E0F7019183808380A1E858FF4F8083F7
:1026B000F701878DE758FF4F8083F092A404E092E2
:1026C000A304C70125D4E091A304F091A404E65823
:1026D000FF4F6081609329048FEF860F8E3F98F043
:1026E00060E070E0CB0191C3612F82EA9BE00E9421
:1026F000873960E08091A30B0E949F3082EA9BE0C3
:102700000E945626682F70E080E090E00E94EB6304
:102710007CC38091A40B811779F0612F82EA9BE042
:102720000E94873960E08091A20B0E949F3060E098
:102730008091A30B0E949F3060E082EA9BE00E94A0
:10274000BE3982EA9BE00E94562660E082EA9BE066
:102750000E94BE39182F82EA9BE00E945626612F04
:1027600070E0660F771F680F711D6ACF00917504C6
:102770008091A40B811363C38091A50B80135FC369
:1027800062E0013059F48091A20B0E949F3060E01A
:1027900082EA9BE00E94BE398027B4CF8091A30BD0
:1027A0000E949F3082EA9BE00E94562661E08627C5
:1027B000A9CF8091C60A811709F48BC0612F84ECE0
:1027C0009AE00E9487398091C50A9091C40A90933B
:1027D000A9058093A8050E94263C61E084EC9AE05C
:1027E0000E94AE3980E78D8FBE01635E7F4F80E02F
:1027F0000E94DA3480E28C8FBE01645E7F4F81E0FC
:102800000E94DA3481E08093D00A8B8FBE01655E2E
:102810007F4F82E00E94DA34CE0101967C0100E015
:1028200010E06C01C8010E940065F70181937F01EF
:102830000F5F1F4F0A311105A9F72D813E814F818E
:10284000588569817A818B819C810E947465298574
:102850003A854B855C850E9474652D853E854F8544
:1028600058890E94746529893A894B895C890E943C
:1028700074652D893E894F89588D0E9474654B017E
:102880005C01898D682F70E080E090E00E94ED632C
:102890009B01AC01C501B4010E94746520E030E0E9
:1028A0004AE253E40E9474650E94A7668A8D681309
:1028B0000CC08AE1F601A1EDBAE001900D928A9573
:1028C000E1F781E08093C80A02C01092C80A0E9412
:1028D000B1400E94654399C200917504612F8BED50
:1028E00099E00E948739CE0101966C0185E0F601DE
:1028F00011928A95E9F760E08BED99E00E94AE397C
:1029000064E170E080E090E00E94E63161E08BEDF0
:1029100099E00E94AE398BE990E00197F1F760E011
:102920008BED99E00E94AE390E94EA274B015C01D1
:102930008BED99E00E945626811110C00E94EA2773
:10294000DC01CB0188199909AA09BB090297A105E5
:10295000B10570F31092DF091092E0090E94EA2796
:102960004B015C018BED99E00E945626882361F0B3
:102970000E94EA27DC01CB0188199909AA09BB0941
:102980000297A105B10570F3E12CF12C0E94EA2712
:102990000E94C1314B015C018BED99E00E945626EB
:1029A00081110DC00E94C131DC01CB018819990948
:1029B000AA09BB09853F9140A105B10568F30E94B2
:1029C000C1314B015C010E94EA272B013C018BEDD8
:1029D00099E00E945626882361F00E94EA27DC01D4
:1029E000CB0184199509A609B7090297A105B1057C
:1029F00070F30E94C131DC01CB0188199909AA0941
:102A0000BB09F70143E0F595E7954A95E1F789970A
:102A1000A105B10530F0EC0DFD1D8081880F8160AE
:102A200004C0EC0DFD1D8081880F80832FEFE21A1A
:102A3000F20A88E2E816F10409F0A8CF59814B8127
:102A40008A8190E0850F911D840F911D2C81820F4A
:102A5000911D2D8130E08217930721F45093DF09F7
:102A60004093E009011103C01091DF0902C01091E9
:102A7000E0090E949C4B809128040E940B4B812FFF
:102A8000CCC1612F85ED99E00E9487398091D509ED
:102A90009091D6099093D9098093DA098091D90948
:102AA00060E00E949F308091DA098093D50980917F
:102AB000D9098093D60985ED99E01CC0612F8FEC70
:102AC00099E00E9487398091CF099091D009909325
:102AD000D3098093D4098091D30960E00E949F308C
:102AE0008091D4098093CF098091D3098093D00934
:102AF0008FEC99E00E94A2390E94104BEEC1009128
:102B00007504111106C08091700B883609F0E5C17B
:102B1000A7C1113009F0E1C180912D0B893609F070
:102B2000DCC18BEE9AE00BD4013009F0BFC1C0903C
:102B3000F50AD090F60AE090F70AF090F80AC7017B
:102B4000B60163C11A8219821C821B821E821D82F9
:102B500060919208709193086115710541F0409160
:102B6000960850919708CE0101960E94C92E1D81AA
:102B7000E12EFE8084E00E940B4B812F0E940B4BC4
:102B800000E010E00E151F05A4F48D819E8108174A
:102B9000190748F489819A81009729F0FC01E00F18
:102BA000F11F808101C080E00E940B4B0F5F1F4F1F
:102BB000E9CF89819A810E94B2698FC1E12FF0E04B
:102BC000EE0FFF1FE157FD4F108160E0812F0E9443
:102BD0009F30812F0E94A231BC01990F880B990B65
:102BE00033CD87E090E00E94D14A7C0160E0812FE4
:102BF0000E949F30A701FF0C660B770B812F0E946C
:102C0000C225F0C00091750461E0812F0E949F30C1
:102C100060E0812F0E94703083E090E00197F1F72F
:102C200061E0812F0E94703083E290E00197F1F71C
:102C300060E0812F0E94703060E0802F0E949F3002
:102C400040E355E760E070E0802F0E94C2256B01F1
:102C50007C0165E070E080E090E00E94E6310E9437
:102C60009C4B809128040E940B4BC701B601ECCC11
:102C700080911E04882309F487C081E00E94854B5F
:102C800010921E042AC18091A40B811779F0612F44
:102C900082EA9BE00E94873960E08091A20B0E944B
:102CA0009F3060E08091A30B0E949F3082EA9BE0FE
:102CB0000E945626182F60E082EA9BE00E94BE39EF
:102CC000110F810FAAC06091BC087091BD0880915E
:102CD000BE089091BF0820913C0930913D09409178
:102CE0003E0950913F090E94736520E030E040E0CA
:102CF0005FE30E944C6420E030E0A9010E944B6732
:102D0000181614F481E089C06091BC087091BD0868
:102D10008091BE089091BF0820913C0930913D09F7
:102D200040913E0950913F090E94736520E030E0D8
:102D300040E05FE30E944C6420E030E0A9010E9483
:102D4000E76387FF21C082E068C08091CB098117CB
:102D500029F0612F89EC99E00E94873989EC99E08C
:102D60000E9456265AC08091B409811729F0612F1C
:102D700082EB99E00E94873981E02091A70490912D
:102D80007504291709F449C080E047C01111A5C096
:102D900090917504809176049130B9F4813049F4B2
:102DA00060914C0970914D0980914E0990914F09A5
:102DB00019C0823009F091C060913C0970913D09C1
:102DC00080913E0990913F0920C0923009F085C062
:102DD000813059F46091CC087091CD088091CE0873
:102DE0009091CF080E94284B78C0823009F075C0BE
:102DF0006091BC087091BD088091BE089091BF0899
:102E000004C0103729F40E94AF490E94544B65C09A
:102E1000113709F062C080916B040E94854B5DC040
:102E20000E94EA27DC01CB018C199D09AE09BF097C
:102E30008E3E9240A105B10508F40CCB20CBE12FCA
:102E4000F0E0EE0FFF1FEB5EFC4F80818093A20B42
:102E500081818093A30B1093A40B0093A50B90CCBE
:102E60008EE29BE06CD2013049F48090380B909058
:102E7000390BA0903A0BB0903B0B15C0023049F4CF
:102E800080903C0B90903D0BA0903E0BB0903F0B80
:102E90000AC0033041F48090400B9090410BA09009
:102EA000420BB090430BC501B401AFCF023049F4DF
:102EB000C090F90AD090FA0AE090FB0AF090FC0A60
:102EC0003ECE033009F03BCEC090FD0AD090FE0A02
:102ED000E090FF0AF090000B32CE6D960FB6F8949A
:102EE000DEBF0FBECDBFDF91CF911F910F91FF903D
:102EF000EF90DF90CF90BF90AF909F908F907F909A
:102F00006F905F904F9008950E94453799270895DC
:102F1000CF93DF93EC0188E690E09FA38EA38BA173
:102F20008823A1F089A140E855E260E070E08F308D
:102F300019F48EE196E004C0803129F488E597E029
:102F40000E94EF259DC08BEB96E0FACF1B8E1A8E68
:102F5000198E188E1F8A1E8A8DE991E09D8F8C8FA5
:102F60008C8596EF980F943048F02EEC280F243083
:102F700028F022EC280F283008F062C02DEB30E05A
:102F80003F8B2E8B2BE931E0398F288F2CE231E0FB
:102F90003B8F2A8F943060F02EEC280F243040F0C5
:102FA00022EC280F283008F471C0A0E0B0E070C017
:102FB000A8E6B0E0E8E6F0E02081943018F08E5307
:102FC000883010F081E001C084E0822B8C938C85E6
:102FD00096EF980F943058F02EEC280F243038F0EC
:102FE00022EC280F283030F020E030E005C02BE63E
:102FF00030E002C02DE630E03C8B2B8B943010F497
:103000009AEF0BC0823381F0833381F0843381F0F7
:1030100092EC980F983070F492EC980F81E001C018
:10302000880F9A95EAF707C088E005C084E003C0DE
:1030300082E001C081E08D8B8C8D9D8D0197F1F731
:103040008A8D9B8D892BE1F080911B0D90911C0D39
:103050008C179D07A9F0009711F00E94162A8E8DFB
:103060008E7F8E8F1092190D10921A0DD0931C0D19
:10307000C0931B0DEB89FC8990818D89892B8083FE
:1030800060E08F8DDF91CF910C949F30A8E6B0E087
:10309000283008F48FCFE0E0F0E08ECF1F93CF937D
:1030A000DF93EC018BA1882379F089A18F3019F48B
:1030B0008EE196E007C0803119F488E597E002C000
:1030C0008BEB96E00E94263060E0CE014F960E9486
:1030D000BE39182F8BA1882311F0CE0119DF81E0B2
:1030E0008127DF91CF911F910895CF93DF93EC015A
:1030F000D5DF8823A1F0CE010E94193718161906D2
:103100008CF4E881F9810284F385E02DCE011995D4
:103110008F3F91053CF4C658DF4F888303C0C658E3
:10312000DF4F1882DF91CF9108951F920F920FB653
:103130000F9211240BB60F920F931F932F933F936F
:103140004F935F936F937F938F939F93AF93BF93AF
:10315000CF93EF93FF9382E00E944830C82F809175
:10316000B4059091B50501969093B5058093B4058B
:1031700080911A06843618F085E08093AF0590910F
:10318000AF05933079F018F4923039F072C0943072
:1031900011F1953009F44AC06CC0C1116AC0109297
:1031A0001A0629C0C13009F064C0E0911A0681E016
:1031B0008E0F80931A06F0E08091B4059091B505CA
:1031C000E255FA4F80871092B5051092B40584E05D
:1031D0008093AF054EC0C11114C0E0911A0681E082
:1031E0008E0F80931A06F0E08091B4059091B5059A
:1031F000E255FA4F80871092B5051092B40583E02E
:10320000E7CF8091B4059091B5058536910588F199
:1032100085E08093AF050E94EA276093B005709324
:10322000B1058093B2059093B30523C00E94EA27AD
:103230000091B0051091B1052091B2053091B30510
:10324000DC01CB01801B910BA20BB30B893C9105D8
:10325000A105B10540F010921A061092B505109222
:10326000B40582E0B5CFC11104C01092B50510922B
:10327000B405FF91EF91CF91BF91AF919F918F9145
:103280007F916F915F914F913F912F911F910F917E
:103290000F900BBE0F900FBE0F901F901895DF92EE
:1032A000EF92FF920F931F93CF93DF93D42ED52FDE
:1032B000C22F8C010E5B1F4FF801808191E090932B
:1032C000FA0D80931C0E1092FB0D10921D0E85EFCF
:1032D00097E00E94BB27813011F580E00E94593BA6
:1032E000811125C06C2FF80180810E94B63BED2C26
:1032F000FD2E00E010E0D0E09091B10D8091B20D74
:10330000981779F00C171D0764F40F5F1F4F85EFB6
:1033100097E00E947027F70181937F01EDCF8FEF37
:1033200006C081E00C171D0709F480E08195DF914C
:10333000CF911F910F91FF90EF90DF9008952F9202
:103340003F924F925F926F927F928F929F92AF9235
:10335000BF92CF92DF92EF92FF920F931F93CF9382
:10336000DF93CDB7DEB72C970FB6F894DEBF0FBE54
:10337000CDBF1C01AC014C5C5F4F2EE06BE38FDFD7
:103380008111F2C1F101A4A8B12CBA2CAA2485A9FB
:103390008501082B13A302A3E6A8F12CFE2CEE2432
:1033A00087A9E82AF5A2E4A280AC912C982C882465
:1033B00081AD882A97A286A2468057806084718456
:1033C00064AD70E0762F662785AD682B072E000C64
:1033D000880B990B0E94ED63F10120A531A542A550
:1033E00053A50E947365A30192010E943A66F10100
:1033F000668B778B808F918F66AD70E0762F662716
:1034000087AD682B072E000C880B990B0E94ED638B
:10341000F10124A535A546A557A50E947365A30112
:1034200092010E943A66F101628F738F848F958FAB
:10343000E05CFF4F608170E0762F662731968081D7
:10344000682B072E000C880B990B0E94ED63F1018D
:1034500020A931A942A953A90E947365A301920131
:103460000E943A66F101668F778F80A391A3B7011E
:10347000FF0C880B990B0E94ED636B017C01B4017A
:10348000990C880B990B0E94ED639B01AC010E9483
:103490004C644B015C01A7019601C701B6010E9473
:1034A0004C64A50194010E9474650E94EB679B0126
:1034B000AC01B801110F880B990B29873A874B870C
:1034C0005C870E94ED632B013C0129853A854B8581
:1034D0005C850E94E76520E030E044E353E40E940D
:1034E0004C642AED3FE049E450E40E943A66698367
:1034F0007A838B839C83A3019201C301B2010E9452
:103500004C64A50194010E9474650E94EB679B01C5
:10351000AC01C701B6010E94E76520E030E044E35A
:1035200053E40E944C642AED3FE049E450E40E94D9
:103530003A666D837E838F8398870E94EA27C090C6
:10354000AA05D090AB05E090AC05F090AD056C19E4
:103550007D098E099F090E94EB6320E030E04AE775
:1035600054E40E943A666B017C010E94EA27609352
:10357000AA057093AB058093AC059093AD05F1015E
:1035800086A197A11816190644F5228D338D448D16
:10359000558DC701B6010E944C649B01AC01F1013D
:1035A00062857385848595850E947365F1016287C4
:1035B00073878487958726893789408D518DC70108
:1035C000B6010E944C649B01AC01F10166857785D0
:1035D000808991890E94746528C0F101228D338D04
:1035E000448D558DC701B6010E944C649B01AC010E
:1035F000F10162857385848595850E947465F1016A
:10360000628773878487958726893789408D518D96
:10361000C701B6010E944C649B01AC01F1016685B3
:103620007785808991890E947365F1016687778724
:10363000808B918BF101268D378D40A151A1C7015F
:10364000B6010E944C64F10122893389448955896D
:103650000E9474652B013C0120E030E044EB53E410
:103660000E943A660E94D36620E030E044EB53E4C7
:103670000E944C649B01AC01C301B2010E947365BE
:103680002B013C0120E030E044E353E40E944B670F
:10369000181634F0F101428A538A648A758A0DC083
:1036A00020E030E044EB53E4C301B2010E947365B3
:1036B000F101628B738B848B958B20E030E040E0CE
:1036C0005FE3C701B6010E9474659B01AC0160E035
:1036D00070E080E09FE30E943A666B017C019B01F1
:1036E000AC0160E070E080E89FE30E9473654B01ED
:1036F0005C01F1012285338544855585C701B601FA
:103700000E944C642B013C01A501940169817A81DE
:103710008B819C810E944C649B01AC01C301B2016E
:103720000E947465F1016287738784879587268577
:10373000378540895189C701B6010E944C646B01ED
:103740007C01A50194016D817E818F8198850E9405
:103750004C649B01AC01C701B6010E947465F10184
:1037600066877787808B918B2C960FB6F894DEBF97
:103770000FBECDBFDF91CF911F910F91FF90EF90C2
:10378000DF90CF90BF90AF909F908F907F906F9081
:103790005F904F903F902F9008954F925F926F925D
:1037A0007F928F929F92AF92BF92CF92DF92EF92D1
:1037B000FF920F931F93CF93DF93CDB7DEB7279779
:1037C0000FB6F894DEBF0FBECDBF8C0180E090E055
:1037D000A3E8B2E4F80186839783A087B1871286B5
:1037E00013861486158616861786108A118A128A01
:1037F000138A148A158A168A178A108E118E128ED1
:10380000138E148E158E168E178E10A211A213A26F
:1038100012A215A214A217A216A210A611A612A6F1
:1038200013A614A615A616A617A610AA11AA12AAC0
:1038300013AA0E94263C60E273E080E090E00E94C0
:10384000E6311B82AE014D5F5F4F6BE6C8010E94FF
:10385000013C81E08A83AE014E5F5F4F6AE1C8019F
:103860000E94013C88E08983AE014F5F5F4F6BE1AE
:10387000C8010E94013C54EFE52EFF24F394812CF3
:10388000912C5401412C512C32011C821D821E822C
:103890001F826801F4E3CF0ED11C26E0A60163E489
:1038A000C801FDDCF80184A990E0982F882725A99C
:1038B000822B092E000CAA0BBB0B2C813D814E8163
:1038C0005F81280F391F4A1F5B1F2C833D834E8366
:1038D0005F8386A990E0982F882727A9822B092E3D
:1038E000000CAA0BBB0B480E591E6A1E7B1E80AD36
:1038F00090E0982F882721AD822B092E000CAA0B6F
:10390000BB0B880E991EAA1EBB1E31E0E31AF108FC
:1039100021F684EFC82EDD24D394E12CF12C6C81A8
:103920007D818E819F81A70196010E941665CA0143
:10393000B9010E94ED63F80160A771A782A793A760
:10394000C301B201A70196010E941665CA01B9011F
:103950000E94ED63F80164A775A786A797A7C50124
:10396000B401A70196010E941665CA01B9010E941F
:10397000ED63F80160AB71AB82AB93AB27960FB6EA
:10398000F894DEBF0FBECDBFDF91CF911F910F9195
:10399000FF90EF90DF90CF90BF90AF909F908F906F
:1039A0007F906F905F904F9008950F931F93CF93E8
:1039B000DF936F3F710519F014F06FEF70E0613025
:1039C0002FEF720714F461E07FEFFC0175836483CD
:1039D000E059FF4FEC01C159DF4F77FF0DC0615037
:1039E0007F4F80810E94DB3061E08881DF91CF9141
:1039F0001F910F910C9470300FEF10E0061B170B06
:103A000061E080810E947030B8018881DF91CF91A0
:103A10001F910F910C94DB302F923F924F925F9247
:103A20006F927F928F929F92AF92BF92CF92DF92CE
:103A3000EF92FF920F931F93CF93DF93CDB7DEB733
:103A40002A970FB6F894DEBF0FBECDBF9A8789873D
:103A5000DC0196966D917D918D919C91999712962E
:103A60000D911C91139756962D913D914D915C911E
:103A700059972D833E834F8358870E94ED636B01D6
:103A80007C01B801110F880B990B0E94ED632D8109
:103A90003E814F8158850E944C649B01AC01C70157
:103AA000B6010E943A6620E030E044EB53E40E9405
:103AB0004C640E94A266E985FA85628F738F848FB9
:103AC000958F0E94EA2709851A850A581F4FD80149
:103AD000CD90DD90ED90FC90DC01CB018C199D091F
:103AE000AE09BF094597A105B10508F467C00E945A
:103AF000EA276B017C01E985FA8586A097A0A0A43E
:103B0000B1A482A193A1A4A1B5A12280338026896A
:103B10003789408D518D29833A834B835C83A5017E
:103B20009401281B390B4A0B5B0BCA01B9010E9497
:103B3000ED632B013C01D8018D919C91C81AD90AE3
:103B4000B60180E090E00E94EB639B01AC0160E075
:103B500070E08AE794E40E943A669B01AC01C301DD
:103B6000B2010E944C6420E030E040E752E40E9441
:103B70004C646B017C01B101330C880B990B0E94E2
:103B8000ED6329813A814B815C810E944C649B01E9
:103B9000AC01C701B6010E943A66E985FA856287E1
:103BA00073878487958782A293A2A4A2B5A20E945C
:103BB000EA27F8016083718382839383A985BA859C
:103BC0009C90B1E09B1278C30E94EA2709851A8570
:103BD00006581F4FF801C080D180E280F380DC01DD
:103BE000CB018C199D09AE09BF098997A105B105C3
:103BF00008F431C40E94EA27D8016D937D938D9318
:103C00009C931397E985FA858181811179C2868D0C
:103C1000978DA0A1B1A1028D138D248D358DBC018E
:103C2000CD01601B710B820B930B0E94ED636B0146
:103C30007C01A984BA84FAE6AF0EB11CD5018C913F
:103C400009851A850C581F4F8111B4C1E985FA8581
:103C5000E559FF4F808120E030E0A901882339F049
:103C6000C701B6010E94E76387FF33C006C0C701E2
:103C7000B6010E944B67181664F5E985FA8522851E
:103C8000338544855585EE5AFF4F6081718182816D
:103C900093810E944C64DC01CB01B058E985FA8520
:103CA000E65AFF4F80839183A283B3836081718141
:103CB000828193810E94A2669B01D8016D937C93BF
:103CC000F5019082A985BA8515967C936E93149719
:103CD000EEC220E030E0A901C701B6010E944B67A7
:103CE00026013701181624F077FA709477F870944B
:103CF000E985FA85668577858089918920E030E0BD
:103D000040EC50E40E944C649B01AC01C301B20141
:103D10000E944B6787FFBFC320E030E0A901C701C5
:103D2000B6010E944B6718165CF420E030E040E2D8
:103D300051E4C701B6010E944B6718165CF03AC106
:103D400020E030E040E251ECC701B6010E94E76399
:103D500087FF30C1E985FA85468457846088718879
:103D600020E030E040E251E4C701B6010E947365F3
:103D70004B015C0120E030E040EC50E4C301B201B3
:103D80000E944C64A50194010E944C6420E030E044
:103D9000A9010E944B6718169CF4A985BA851E9646
:103DA0006D917D918D919C91519720E030E040EC98
:103DB00050E40E944C64A50194010E944C6411C01F
:103DC000E985FA85668577858089918920E030E0EC
:103DD00040EC50E40E944C64A50194010E944C64A4
:103DE00090580E94EB6720E030E040EC50E40E94E5
:103DF0003A662B013C01A985BA851A968D909D9053
:103E0000AD90BC901D9720E030E0A901C701B6013C
:103E10000E944B67A701960118160CF05058E985CF
:103E2000FA85EE5AFF4F80819181A281B381898307
:103E30009A83AB83BC83C701B6010E943A669B019B
:103E4000AC01C301B2010E944C649B01AC01C501ED
:103E5000B4010E9473659B01AC0169817A818B81F9
:103E60009C810E944C642B013C0120E030E040EA40
:103E700051EC0E94E76387FD11C020E030E040EA8A
:103E800051E4C301B2010E944B6718166CF4412C37
:103E9000512C40EA642E41E4742E06C0412C512C72
:103EA00050EA652E51EC752ED8016D917C91072E4C
:103EB000000C880B990B0E94ED63A984BA84BAE5C3
:103EC000AB0EB11CF50160837183828393836081A3
:103ED000718182819381A30192010E947365D50152
:103EE0006D937D938D939C93139720E030E0A9010F
:103EF000C701B6010E944B6787FD24C0F5016081B0
:103F000071818281938120E030E048EC51E40E948D
:103F1000E76387FD12C0D5016D917D918D919C91D4
:103F200020E030E04FE753E40E944B67181624F579
:103F300080E090E0AFE7B3E42EC080E090E0A8EC32
:103F4000B1E429C0D5016D917D918D919C9120E0C6
:103F500030E04FE753EC0E94E76387FD13C0F501A3
:103F6000608171818281938120E030E048EC51ECE6
:103F70000E944B6718165CF0F50180819181A28147
:103F8000B38109C080E090E0AFE7B3EC04C080E00B
:103F900090E0A8ECB1ECF50180839183A283B38318
:103FA00060817181828193810E94A266F801718390
:103FB0006083A2C081E0D5018C93E985FA85E2583F
:103FC000FF4F0190F081E02D309769F0A985BA8507
:103FD000A459BF4F6C9170E0A985BA85AD58BF4F09
:103FE0008C9190E01995E985FA8522853385448581
:103FF0005585EE5AFF4F60817181828193810E94C5
:104000004C644B015C0120E030E040EA51EC0E943E
:10401000E76387FD11C020E030E040EA51E4C501CC
:10402000B4010E944B6718166CF4812C912C20EA85
:10403000A22E21E4B22E06C0812C912C30EAA32EB0
:1040400031ECB32EE985FA85E65BFF4F20813181A3
:1040500042815381C701B6010E944C64E984FA840D
:10406000FAE5EF0EF11CD7016D937D938D939C9330
:1040700013976D917D918D919C91A50194010E9462
:104080007365F7016083718382839383608171819B
:104090008281938120E030E04FE753EC0E94E76398
:1040A00087FD13C0D7016D917D918D919C9120E08A
:1040B00030E04FE753E40E944B6718165CF0F701BD
:1040C00080819181A281B38109C080E090E0AFE757
:1040D000B3EC04C080E090E0AFE7B3E4F701808385
:1040E0009183A283B38360817181828193810E94D5
:1040F000A266D8016D937C93F80120813181D7C0ED
:10410000A985BA8511968C911197813009F0CDC09F
:104110001A966D917D918D919C911D971E962D9172
:104120003D914D915C9151979A96CD90DD90ED9097
:10413000FC909D970E9473659B01AC01C701B6017D
:104140000E944C646B017C0120E030E048EC51ECB3
:104150000E94E76387FD11C020E030E048EC51E4A5
:10416000C701B6010E944B6718166CF4C12CD12C04
:1041700088ECE82E81E4F82E06C0C12CD12C98ECF6
:10418000E92E91ECF92E09851A850C581F4FF8017C
:1041900060817181072E000C880B990B0E94ED63E2
:1041A000A985BA85DA966D937D938D939C93DD975F
:1041B000DA966D917D918D919C91DD97A701960185
:1041C0000E947365E985FA8562AF73AF84AF95AFDE
:1041D0005F01FAE6AF0EB11CD5018C91E985FA8535
:1041E000882329F012AE13AE14AE15AE1FC066853B
:1041F00077858089918920E030E0A9010E94E763FA
:10420000811114C020E030E0A901C701B6010E946D
:104210004B6718160CF0F9C120E030E040E751E49C
:10422000C701B6010E94E76387FDFAC1A985BA8577
:10423000DA966D917D918D919C91DD9720E030E033
:104240004FE753EC0E94E76387FD15C0E985FA85C7
:1042500062AD73AD84AD95AD20E030E04FE753E43F
:104260000E944B67181664F0E985FA8582AD93AD1C
:10427000A4ADB5AD09C080E090E0AFE7B3EC04C0F9
:1042800080E090E0AFE7B3E4E985FA8582AF93AFD1
:10429000A4AFB5AF62AD73AD84AD95AD0E94A2661B
:1042A0009B01D8016D937C9302C020E030E0E9854A
:1042B000FA8535832483CFC0E985FA8580818230F1
:1042C00009F0C1C187D609851A8506581F4FD80144
:1042D000CD90DD90ED90FC90DC01CB018C199D0917
:1042E000AE09BF098997A105B10508F4B4C072D61B
:1042F000F8016083718382839383A985BA851496BC
:104300006D917C91159716960D911C911797072E1C
:10431000000C880B990B0E94ED632DEC3CEC4CE4F7
:104320005FE30E944C646B017C01B801110F880BA4
:10433000990B0E94ED632DEC3CEC4CE45EE30E9493
:104340004C649B01AC01C701B6010E94746520E07A
:1043500030E0A9010E944B6787FD2DC0E985FA85F1
:104360006481758106811781072E000C880B990BDB
:104370000E94ED632DEC3CEC4CE45FE30E944C6446
:104380006B017C01B801110F880B990B0E94ED6342
:104390002DEC3CEC4CE45EE30E944C649B01AC01D0
:1043A000C701B6010E94746520E030E040E05FE3A1
:1043B0000E94746530C0A985BA8514966D917C9170
:1043C000159716960D911C911797072E000C880BC8
:1043D000990B0E94ED632DEC3CEC4CE45FE30E94F2
:1043E0004C646B017C01B801110F880B990B0E9482
:1043F000ED632DEC3CEC4CE45EE30E944C649B01CD
:10440000AC01C701B6010E94746520E030E040E0D5
:104410005FE30E9473650E94A266E985FA85758351
:10442000648384819581181619061CF48481958112
:1044300009C0A985BA8514968D919C91159791957F
:10444000819591090B973CF4E985FA8586819781DE
:10445000892B09F4F1C0A985BA8514966D917C91D8
:104460001597CD012A960FB6F894DEBF0FBECDBFCB
:10447000DF91CF911F910F91FF90EF90DF90CF9040
:10448000BF90AF909F908F907F906F905F904F9074
:104490003F902F908ACAA985BA851A962D913D9191
:1044A0004D915C911D9729833A834B835C831E96C3
:1044B0008D909D90AD90BC90519720E030E0A90187
:1044C000C701B6010E944B67181624F0A701960198
:1044D000505802C0A7019601A985BA859A964D90B9
:1044E0005D906D907C909D97C701B6010E943A66E1
:1044F0009B01AC01C501B4010E944C649B01AC015D
:1045000069817A818B819C810E9473659B01AC01DA
:10451000C301B2010E944C646B017C0120E030E0D9
:1045200048EC51EC0E94E76387FD11C020E030E0C9
:1045300048EC51E4C701B6010E944B6718166CF4B1
:10454000C12CD12C68ECE62E61E4F62E06C0C12CFD
:10455000D12C78ECE72E71ECF72EF8016081718197
:10456000072E000C880B990B0E94ED63A985BA8574
:10457000DA966D937D938D939C93DD97DA966D918A
:104580007D918D919C91DD97A70196010E947365A5
:10459000E985FA8562AF73AF84AF95AF62AD73AD55
:1045A00084AD95AD20E030E04FE753EC0E94E76327
:1045B00087FD17C0A985BA85DA966D917D918D9199
:1045C0009C91DD9720E030E04FE753E40E944B6779
:1045D000181664F0E985FA8582AD93ADA4ADB5AD4A
:1045E00009C080E090E0AFE7B3EC04C080E090E069
:1045F000AFE7B3E4E985FA8582AF93AFA4AFB5AF77
:1046000062AD73AD84AD95AD72CD20E030E040E792
:1046100051ECC701B6010E944B6718160CF006CE8C
:10462000A985BA85DA961D921D921D921C92DD977E
:1046300081E0F5018083FACDA985BA8515961C9293
:104640001E92149708CF2A960FB6F894DEBF0FBEBD
:10465000CDBFDF91CF911F910F91FF90EF90DF9031
:10466000CF90BF90AF909F908F907F906F905F9012
:104670004F903F902F900895CF92DF92EF92FF924C
:104680001F93CF93DF93EC01FC01ED58FF4F608344
:1046900015E0169FF0011124E155FD4F80817E0148
:1046A0009DE6E90EF11CD7018C936E01BEE6CB0EA0
:1046B000D11C9181D6019C93119692819C93119665
:1046C00093819C93119694819C9362E00E949F3009
:1046D00062E0F60180810E949F301EA21FA218A6F0
:1046E00019A684EF91E099878887188289E090E085
:1046F0009B838A8388E691E1ADE1B2E48E8B9F8B48
:10470000A88FB98FD7018C91823129F4FE01EE5820
:10471000FF4F10831AC0833111F484E003C0843149
:1047200031F483E0FE01EE58FF4F80830EC08531E7
:1047300011F482E0F7CF833011F481E0F3CF8230BF
:1047400021F4FE01EE58FF4F108260E070E0CE01D0
:104750002CD91EA21FA218A619A63CD4CA58DF4FF6
:10476000688379838A839B83DF91CF911F91FF9028
:10477000EF90DF90CF9008954F925F926F927F926B
:104780008F929F92AF92BF92CF92DF92EF92FF9261
:104790000F931F93CF93DF93CDB7DEB76E970FB60E
:1047A000F894DEBF0FBECDBF4C012A013B0120E0D3
:1047B00030E048E453E4C301B2010E944B6718168D
:1047C0008CF020E030E048E453ECC301B2010E94D9
:1047D000E76387FF0DC0412C512C28E4622E23ECA7
:1047E000722E06C0412C512C98E4692E93E4792E48
:1047F000CE0101965C018EE0F50111928A95E9F7F0
:104800006E01FFE0CF0ED11C8AE0F60111928A956D
:10481000E9F79E01275E3F4F86E0F90111928A95E4
:10482000E9F7F4018481898F85E08A8F4B8E5C8E55
:104830006D8E7E8E16E0E12EF12C00E010E04EE051
:1048400050E060E070E0C5010E94BF322EE030E031
:10485000A601B501C4010E948032C6010E945B40DE
:104860000E94BE3E80E06E960FB6F894DEBF0FBE8B
:10487000CDBFDF91CF911F910F91FF90EF90DF900F
:10488000CF90BF90AF909F908F907F906F905F90F0
:104890004F9008954F925F926F927F928F929F9266
:1048A000AF92BF92CF92DF92EF92FF921F93CF937E
:1048B000DF93CDB7DEB728970FB6F894DEBF0FBEF3
:1048C000CDBF853B08F048C1653608F045C1453687
:1048D00008F042C1F42E262FB82E6EE10E94DC684B
:1048E000182F622F70E080E090E00E94ED6320E0DE
:1048F00030E048EC52E40E943A662B013C016F2DF7
:1049000070E080E090E00E94ED6320E030E048EC51
:1049100052E40E943A666B017C016B2D70E080E0EE
:1049200090E00E94EB6320E030E040EF51E40E9411
:104930003A664B015C01612F70E080E090E00E94DC
:10494000EB639B01AC01C501B4010E9473656D83EB
:104950007E838F839887A301920160E070E080E8F6
:104960009FE30E9473659B01AC01C701B6010E94E1
:104970004C644B015C01A30192016D817E818F81AA
:1049800098850E944C649B01AC0160E070E080E877
:104990009FE30E9473659B01AC01C701B6010E94B1
:1049A0004C6469837A838B839C832D813E814F8104
:1049B000588560E070E080E89FE30E947365A30182
:1049C00092010E944C649B01AC0160E070E080E8C1
:1049D0009FE30E9473659B01AC01C701B6010E9471
:1049E0004C642B013C01133009F450C020F5113008
:1049F000C1F1123009F08CC020E030E04FE753E401
:104A0000C501B4010E944C640E94A76660931D0614
:104A100020E030E04FE753E4C701B6010E944C6448
:104A20000E94A76660931C0620E030E04FE753E445
:104A3000C301B2018BC0153009F449C008F068C049
:104A400020E030E04FE753E40E944C640E94A766E8
:104A500060931D0620E030E04FE753E4C501B40148
:104A600029C020E030E04FE753E469817A818B81EF
:104A70009C810E944C640E94A76660931D0620E002
:104A800030E04FE753E4C701B60154C020E030E006
:104A90004FE753E4C501B4010E944C640E94A7662D
:104AA00060931D0620E030E04FE753E469817A818E
:104AB0008B819C810E944C640E94A76660931C06B7
:104AC00020E030E04FE753E4C701B6013FC020E0EB
:104AD00030E04FE753E4C701B6010E944C640E94E6
:104AE000A76660931D0620E030E04FE753E4C50160
:104AF000B4010E944C640E94A76660931C0620E0EB
:104B000030E04FE753E469817A818B819C811EC03C
:104B100020E030E04FE753E4C701B6010E944C6447
:104B20000E94A76660931D0620E030E04FE753E443
:104B3000C301B2010E944C640E94A76660931C06E8
:104B400020E030E04FE753E4C501B4010E944C641B
:104B50000E94A76660931B0628960FB6F894DEBFE6
:104B60000FBECDBFDF91CF911F91FF90EF90DF90EF
:104B7000CF90BF90AF909F908F907F906F905F90FD
:104B80004F9008950F931F9390E0FC01EA53FB4F61
:104B9000A491FC01E058FB4FE491F0E0EE0FFF1F01
:104BA000EA59FB4F859194918A019B013F704A2FEE
:104BB0006A2F0E94B04B611571058105910549F07E
:104BC000DC01CB010196A11DB11DBC01CD019F707F
:104BD00003C060E070E0CB011F910F910895CF9268
:104BE000DF92EF92FF920F931F93CF93DF93EC012D
:104BF0006A017B01E889F98982E080834115514E81
:104C000061057105B1F060E079E08DE390E0A70106
:104C100096010E94426589019A01015011092109FA
:104C2000310936952795179507959801011510417B
:104C3000A8F0E889F989108260E874E88EE190E0D4
:104C4000A70196010E944265DA01C9010197A109F5
:104C5000B109B695A795979587959C01EC85FD853B
:104C60003083EE85FF852083188EEC89FD8986E0F0
:104C70008083EA89FB89808180618083EA89FB895E
:104C8000808188608083EA89FB8980818068808355
:104C9000EA89FB8980818F7D8083DF91CF911F918D
:104CA0000F91FF90EF90DF90CF900895CF93DF9317
:104CB000EC0160E089810E949F3089810E94483028
:104CC00021E0892B09F420E0822FDF91CF91089514
:104CD000D9015FB7F8942C91342F30953223422BB1
:104CE000FC01680F791FE617F70781F0819198E0C2
:104CF0004C9300C087FF3C93880F00C000C000C0E9
:104D000008F43C9300C09A9599F7EDCF5FBF0895E2
:104D1000089520911B0D30911C0D2817390771F44F
:104D200090911A0D8091190D981741F0E0911A0D8C
:104D3000F0E0EC59F24F808190E008958FEF9FEF03
:104D4000089508951F93CF93DF93DC015C962D9116
:104D50003C915D972115310539F481E090E013967F
:104D60009C938E9312973DC05196ED91FC91529772
:104D700050969C915097892F80951FB75E964C91C5
:104D80005E9741FB772770F941FD6095F89440816B
:104D9000772311F0492B01C048234083E901219773
:104DA000F1F748E0508160FF02C0592B01C0582341
:104DB0005083E9012197F1F76695415099F77723E0
:104DC00021F090818923808303C08081982B908378
:104DD0001FBF5C968D919C915D970197F1F721E043
:104DE00030E0C901DF91CF911F91089520911B0DF3
:104DF00030911C0D2817390769F48091190D209105
:104E00001A0D90E0805C9F4F821B910960E470E076
:104E10000C94FC6880E090E0089520911B0D309187
:104E20001C0D28173907B9F490911A0D8091190DAE
:104E3000981789F0E0911A0DF0E0EC59F24F80815B
:104E400020911A0D30E02F5F3F4F2F7333272093AF
:104E50001A0D90E008958FEF9FEF089585ED8093F0
:104E6000BC008091BC0084FDFCCF1092F90D089528
:104E700040913F0D262F30E0240F311D21323105A6
:104E8000DCF42091F90D2430C9F4FC0180E090E0BD
:104E9000861758F430913F0D2191DC01A35EB24F8B
:104EA000A30FB11D2C930196F3CF80913F0D680F96
:104EB00060933F0D80E0089581E0089582E00895B9
:104EC0000895E091B20D8091B10DE81730F4F0E053
:104ED000ED54F24F808190E008958FEF9FEF089599
:104EE0009091B20D8091B10D981750F4E92FF0E038
:104EF000ED54F24F208130E09F5F9093B20D02C0DD
:104F00002FEF3FEFC90108958091B10D90E02091FE
:104F1000B20D821B91090895CF92DF92EF92FF921A
:104F20000F931F93CF93DF937C01262F972F8A0136
:104F30008091FA0D882391F0C62FD72F6E01C40EF1
:104F4000D51ECC15DD0569F06991D701ED91FC9175
:104F50000190F081E02DC7011995F3CF642F822FC6
:104F600087DFC801DF91CF911F910F91FF90EF90E4
:104F7000DF90CF900895CF93DF931F92CDB7DEB728
:104F800069832091FA0D2223D1F020911D0E203249
:104F900040F021E030E0FC013383228380E090E0A8
:104FA00014C08091FB0DE82FF0E0E450F24F99819E
:104FB00090838F5F8093FB0D80931D0E04C061E092
:104FC000CE01019655DF81E090E00F90DF91CF9107
:104FD000089508952FB7F8946091A50D7091A60DCE
:104FE0008091A70D9091A80D2FBF08951F920F9249
:104FF0000FB60F9211242F933F938F939F93AF93EC
:10500000BF938091A50D9091A60DA091A70DB09191
:10501000A80D3091A40D23E0230F2D3720F4019625
:10502000A11DB11D05C026E8230F0296A11DB11DCB
:105030002093A40D8093A50D9093A60DA093A70D8A
:10504000B093A80D8091A90D9091AA0DA091AB0DE0
:10505000B091AC0D0196A11DB11D8093A90D909347
:10506000AA0DA093AB0DB093AC0DBF91AF919F91E2
:105070008F913F912F910F900FBE0F901F90189519
:105080001F920F920FB60F9211240BB60F922F930F
:105090003F934F935F936F937F938F939F93AF93C0
:1050A000BF93EF93FF93E0911B02F0911C021995BF
:1050B000FF91EF91BF91AF919F918F917F916F91F0
:1050C0005F914F913F912F910F900BBE0F900FBEAC
:1050D0000F901F9018951F920F920FB60F921124E8
:1050E0000BB60F922F933F934F935F936F937F93E2
:1050F0008F939F93AF93BF93EF93FF93E091190228
:10510000F0911A021995FF91EF91BF91AF919F9184
:105110008F917F916F915F914F913F912F910F9060
:105120000BBE0F900FBE0F901F9018951F920F92FD
:105130000FB60F9211240BB60F922F933F934F93FC
:105140005F936F937F938F939F93AF93BF93EF93EF
:10515000FF93E0910F02F09110021995FF91EF91EA
:10516000BF91AF919F918F917F916F915F914F917F
:105170003F912F910F900BBE0F900FBE0F901F907D
:1051800018951F920F920FB60F9211240BB60F9223
:105190002F933F934F935F936F937F938F939F933F
:1051A000AF93BF93EF93FF93E0910D02F0910E0246
:1051B0001995FF91EF91BF91AF919F918F917F9141
:1051C0006F915F914F913F912F910F900BBE0F9078
:1051D0000FBE0F901F9018951F920F920FB60F924F
:1051E00011240BB60F922F933F934F935F936F93BE
:1051F0007F938F939F93AF93BF93EF93FF93E09130
:105200001702F09118021995FF91EF91BF91AF919C
:105210009F918F917F916F915F914F913F912F91CE
:105220000F900BBE0F900FBE0F901F9018951F92FE
:105230000F920FB60F9211240BB60F922F933F933C
:105240004F935F936F937F938F939F93AF93BF938E
:10525000EF93FF93E0911502F09116021995FF91DB
:10526000EF91BF91AF919F918F917F916F915F91DE
:105270004F913F912F910F900BBE0F900FBE0F904B
:105280001F9018951F920F920FB60F9211240BB614
:105290000F922F933F934F935F936F937F938F93CF
:1052A0009F93AF93BF93EF93FF93E0911302F0911D
:1052B00014021995FF91EF91BF91AF919F918F913A
:1052C0007F916F915F914F913F912F910F900BBE06
:1052D0000F900FBE0F901F9018951F920F920FB650
:1052E0000F9211240BB60F922F933F934F935F931E
:1052F0006F937F938F939F93AF93BF93EF93FF939E
:10530000E0911102F09112021995FF91EF91BF9176
:10531000AF919F918F917F916F915F914F913F914D
:105320002F910F900BBE0F900FBE0F901F901895EE
:105330001F920F920FB60F9211240BB60F922F935C
:105340003F934F935F936F937F938F939F93AF930D
:10535000BF93EF93FF93E0911B0DF0911C0D3097DD
:1053600009F451C0968DA685B785858591FF04C047
:105370009C91892329F447C09C91892309F043C05B
:10538000A389B4899C918589809589238C9386898A
:1053900097890197F1F7608D718DA685B785558541
:1053A00038E020E0CB010197F1F7822F90E095954E
:1053B0008795282F4C91452309F02068315091F7AB
:1053C000868D81FD20958091190D90E001968F7357
:1053D000992730911A0D381749F0A091190DB0E0B6
:1053E000AC59B24F2C938093190D03C0868D816008
:1053F000868F828D938D0197F1F7A389B4899C9153
:105400008589892B8C93FF91EF91BF91AF919F91EB
:105410008F917F916F915F914F913F912F910F905D
:105420000BBE0F900FBE0F901F901895E0911B0DB3
:10543000F0911C0DE817F90769F4A389B4899C91D0
:105440008589809589238C9310921C0D10921B0DD9
:1054500081E0089580E008951F920F920FB60F9299
:1054600011240BB60F922F933F934F935F936F933B
:105470007F938F939F93AF93BF93EF93FF9380910D
:10548000B900887F803609F49CC068F5883209F439
:105490005BC090F4803109F454C038F4882309F4D7
:1054A000F6C0883009F44DC0F5C0883109F44CC00D
:1054B000803209F45DC0EEC0803409F468C048F45D
:1054C000803309F455C0883309F0E4C08093F70DA8
:1054D000D8C0803509F44FC0883509F45DC08834E0
:1054E00009F0D8C0D6C0883909F4C7C0A8F48837F5
:1054F00009F467C038F4883609F463C0803709F4CA
:1055000060C0C8C0883809F4B8C0803909F45FC0E9
:10551000803809F0BFC05BC0803B09F486C038F416
:10552000803A09F466C0883A09F47FC0B3C0803C71
:1055300009F4A7C0883C09F4A4C0883B09F48AC0D8
:10554000A9C08091D40D10C09091F60D8091F50DF9
:10555000981770F5E091F60D81E08E0F8093F60DAF
:10556000F0E0EB52F24F80818093BB0085EC86C067
:105570008093F70D8EC0E091F60D81E08E0F809341
:10558000F60D8091BB00F0E0EB52F24F80839091DA
:10559000F60D8091F50D6EC0E091F60D81E08E0F55
:1055A0008093F60D8091BB00F0E0EB52F24F8083C8
:1055B0008091F80D81116DC081E08093D30D84EA54
:1055C00061C083E08093F90D1092630DCFCF80917D
:1055D000630D803208F051C0E091630D81E08E0FC1
:1055E0008093630D8091BB00F0E0ED5BF24F808310
:1055F000BDCF85EC8093BC001092F90D8091630DB6
:10560000803230F4E091630DF0E0ED5BF24F1082F8
:105610006091630D70E0E091410DF091420D83E4E3
:105620009DE019951092630D35C084E08093F90DCB
:105630001092400D10923F0DE0913D0DF0913E0D06
:10564000199580913F0D811105C081E080933F0D38
:1056500010921D0DE091400D81E08E0F8093400D62
:10566000F0E0E35EF24F80818093BB009091400DAB
:1056700080913F0D981708F479CF85E88093BC009E
:1056800009C085EC8093BC001092F90D03C0109204
:10569000F70DE4DBFF91EF91BF91AF919F918F9157
:1056A0007F916F915F914F913F912F910F900BBE22
:1056B0000F900FBE0F901F901895CF92DF92EF9230
:1056C000FF92CF93DF93EC01603282E078070CF019
:1056D0003DC077FD06C0653B71052CF064EB70E0C2
:1056E00002C060E070E0898128E830E06901C81AF2
:1056F000D10887FDD394CC0CDD1CCC0CDD1C0D2C0B
:10570000000CEE08FF088A8128E532E0281B3109E9
:1057100087FD3395220F331F220F331FC901330F2B
:10572000AA0BBB0B9C01AD012C193D094E095F0969
:10573000DB010E943C6524EB30E040E050E00E9439
:105740001665C20ED31EE41EF51EB6018881803395
:1057500080F5998148E850E0491B510997FD539520
:10576000440F551F440F551F6417750784F09A8125
:1057700028E532E0291B310997FD3395220F331FAD
:10578000220F331FAB01261737070CF4A901425033
:105790005109440F551F2FB7F89490E0FC01EE0F0C
:1057A000FF1F8E0F9F1FFC01EF5FF74F5283418356
:1057B0002FBFDF91CF91FF90EF90DF90CF900895B2
:1057C0001F93CF93DF93EC01162F8881803308F06D
:1057D0004DC061E0812FB3D48881E82FF0E09F01B4
:1057E000220F331FE20FF31FEF5FF74F1F779081F8
:1057F0009078192B108319821A826CE00E94DC6861
:105800009CE0899FB001112440E050E09A01260FEE
:10581000371FF901EE0FFF1F2E0F3F1FF901EF5F3A
:10582000F74F908197FD16C04F5F5F4F4C30510589
:1058300069F7813001F51092800082E08093810049
:105840001092850010928400B19A80916F0082605E
:1058500080936F00E881F0E0CF01880F991FE80F77
:10586000F91FEF5FF74F8081806880838881DF9127
:10587000CF911F910895823061F41092900080932F
:105880009100109295001092940088BB8093710053
:10589000E1CF833069F41092A00082E08093A100F0
:1058A0001092A5001092A40089BB80937200D2CF01
:1058B0008111D0CF1092200182E0809321011092BB
:1058C0002501109224018ABB80937300C3CF1F92DD
:1058D0000F920FB60F9211240BB60F922F933F9396
:1058E0004F935F936F937F938F939F93AF93BF93E8
:1058F000EF93FF9348E251E064E271E080E090E0D2
:105900000E947E37FF91EF91BF91AF919F918F9150
:105910007F916F915F914F913F912F910F900BBEAF
:105920000F900FBE0F901F9018951F920F920FB6F9
:105930000F9211240BB60F922F933F934F935F93C7
:105940006F937F938F939F93AF93BF93EF93FF9347
:1059500048EA50E064EA70E083E090E00E947E371D
:10596000FF91EF91BF91AF919F918F917F916F9137
:105970005F914F913F912F910F900BBE0F900FBEF3
:105980000F901F9018951F920F920FB60F9211242F
:105990000BB60F922F933F934F935F936F937F9329
:1059A0008F939F93AF93BF93EF93FF9348E950E09A
:1059B00064E970E082E090E00E947E37FF91EF9111
:1059C000BF91AF919F918F917F916F915F914F9117
:1059D0003F912F910F900BBE0F900FBE0F901F9015
:1059E00018951F920F920FB60F9211240BB60F92BB
:1059F0002F933F934F935F936F937F938F939F93D7
:105A0000AF93BF93EF93FF9348E850E064E870E0F2
:105A100081E090E00E947E37FF91EF91BF91AF91BE
:105A20009F918F917F916F915F914F913F912F91B6
:105A30000F900BBE0F900FBE0F901F901895CF9236
:105A4000DF92EF92FF920F931F93CF93DF936C013E
:105A50007A018B01C0E0D0E0CE15DF0589F0D801D6
:105A60006D918D01D601ED91FC910190F081E02DB9
:105A7000C6011995892B11F47E0102C02196ECCF45
:105A8000C701DF91CF911F910F91FF90EF90DF90B1
:105A9000CF900895FC01A089B1898C91A689B7891E
:105AA00082FD0FC09C91818D8F5F8F73228D821735
:105AB00049F0218DDF01A20FB11D5D969C93818F6E
:105AC00008958C910895FC01538D448D252F30E06D
:105AD000842F90E0821B930B541710F0CF960895FB
